{
  "_format": "hh-sol-artifact-1",
  "contractName": "CasperBridgeWrapper",
  "sourceName": "contracts/CasperBridgeWrapper.sol",
  "abi": [
    {
      "inputs": [
        {
          "internalType": "uint256",
          "name": "_requiredSignatures",
          "type": "uint256"
        },
        {
          "internalType": "uint256",
          "name": "_minBurnAmount",
          "type": "uint256"
        }
      ],
      "stateMutability": "nonpayable",
      "type": "constructor"
    },
    {
      "inputs": [],
      "name": "ECDSAInvalidSignature",
      "type": "error"
    },
    {
      "inputs": [
        {
          "internalType": "uint256",
          "name": "length",
          "type": "uint256"
        }
      ],
      "name": "ECDSAInvalidSignatureLength",
      "type": "error"
    },
    {
      "inputs": [
        {
          "internalType": "bytes32",
          "name": "s",
          "type": "bytes32"
        }
      ],
      "name": "ECDSAInvalidSignatureS",
      "type": "error"
    },
    {
      "inputs": [
        {
          "internalType": "address",
          "name": "spender",
          "type": "address"
        },
        {
          "internalType": "uint256",
          "name": "allowance",
          "type": "uint256"
        },
        {
          "internalType": "uint256",
          "name": "needed",
          "type": "uint256"
        }
      ],
      "name": "ERC20InsufficientAllowance",
      "type": "error"
    },
    {
      "inputs": [
        {
          "internalType": "address",
          "name": "sender",
          "type": "address"
        },
        {
          "internalType": "uint256",
          "name": "balance",
          "type": "uint256"
        },
        {
          "internalType": "uint256",
          "name": "needed",
          "type": "uint256"
        }
      ],
      "name": "ERC20InsufficientBalance",
      "type": "error"
    },
    {
      "inputs": [
        {
          "internalType": "address",
          "name": "approver",
          "type": "address"
        }
      ],
      "name": "ERC20InvalidApprover",
      "type": "error"
    },
    {
      "inputs": [
        {
          "internalType": "address",
          "name": "receiver",
          "type": "address"
        }
      ],
      "name": "ERC20InvalidReceiver",
      "type": "error"
    },
    {
      "inputs": [
        {
          "internalType": "address",
          "name": "sender",
          "type": "address"
        }
      ],
      "name": "ERC20InvalidSender",
      "type": "error"
    },
    {
      "inputs": [
        {
          "internalType": "address",
          "name": "spender",
          "type": "address"
        }
      ],
      "name": "ERC20InvalidSpender",
      "type": "error"
    },
    {
      "inputs": [],
      "name": "EnforcedPause",
      "type": "error"
    },
    {
      "inputs": [],
      "name": "ExpectedPause",
      "type": "error"
    },
    {
      "inputs": [
        {
          "internalType": "address",
          "name": "owner",
          "type": "address"
        }
      ],
      "name": "OwnableInvalidOwner",
      "type": "error"
    },
    {
      "inputs": [
        {
          "internalType": "address",
          "name": "account",
          "type": "address"
        }
      ],
      "name": "OwnableUnauthorizedAccount",
      "type": "error"
    },
    {
      "inputs": [],
      "name": "ReentrancyGuardReentrantCall",
      "type": "error"
    },
    {
      "anonymous": false,
      "inputs": [
        {
          "indexed": true,
          "internalType": "address",
          "name": "owner",
          "type": "address"
        },
        {
          "indexed": true,
          "internalType": "address",
          "name": "spender",
          "type": "address"
        },
        {
          "indexed": false,
          "internalType": "uint256",
          "name": "value",
          "type": "uint256"
        }
      ],
      "name": "Approval",
      "type": "event"
    },
    {
      "anonymous": false,
      "inputs": [
        {
          "indexed": true,
          "internalType": "address",
          "name": "user",
          "type": "address"
        },
        {
          "indexed": false,
          "internalType": "uint256",
          "name": "amount",
          "type": "uint256"
        },
        {
          "indexed": false,
          "internalType": "string",
          "name": "destinationChain",
          "type": "string"
        },
        {
          "indexed": false,
          "internalType": "string",
          "name": "destinationAddress",
          "type": "string"
        },
        {
          "indexed": true,
          "internalType": "uint256",
          "name": "nonce",
          "type": "uint256"
        }
      ],
      "name": "AssetBurned",
      "type": "event"
    },
    {
      "anonymous": false,
      "inputs": [
        {
          "indexed": true,
          "internalType": "address",
          "name": "user",
          "type": "address"
        },
        {
          "indexed": false,
          "internalType": "uint256",
          "name": "amount",
          "type": "uint256"
        },
        {
          "indexed": false,
          "internalType": "string",
          "name": "sourceChain",
          "type": "string"
        },
        {
          "indexed": false,
          "internalType": "string",
          "name": "sourceTxHash",
          "type": "string"
        },
        {
          "indexed": true,
          "internalType": "uint256",
          "name": "nonce",
          "type": "uint256"
        }
      ],
      "name": "AssetMinted",
      "type": "event"
    },
    {
      "anonymous": false,
      "inputs": [
        {
          "indexed": true,
          "internalType": "address",
          "name": "previousOwner",
          "type": "address"
        },
        {
          "indexed": true,
          "internalType": "address",
          "name": "newOwner",
          "type": "address"
        }
      ],
      "name": "OwnershipTransferred",
      "type": "event"
    },
    {
      "anonymous": false,
      "inputs": [
        {
          "indexed": false,
          "internalType": "address",
          "name": "account",
          "type": "address"
        }
      ],
      "name": "Paused",
      "type": "event"
    },
    {
      "anonymous": false,
      "inputs": [
        {
          "indexed": false,
          "internalType": "uint256",
          "name": "newRequirement",
          "type": "uint256"
        }
      ],
      "name": "RequiredSignaturesUpdated",
      "type": "event"
    },
    {
      "anonymous": false,
      "inputs": [
        {
          "indexed": true,
          "internalType": "address",
          "name": "from",
          "type": "address"
        },
        {
          "indexed": true,
          "internalType": "address",
          "name": "to",
          "type": "address"
        },
        {
          "indexed": false,
          "internalType": "uint256",
          "name": "value",
          "type": "uint256"
        }
      ],
      "name": "Transfer",
      "type": "event"
    },
    {
      "anonymous": false,
      "inputs": [
        {
          "indexed": false,
          "internalType": "address",
          "name": "account",
          "type": "address"
        }
      ],
      "name": "Unpaused",
      "type": "event"
    },
    {
      "anonymous": false,
      "inputs": [
        {
          "indexed": true,
          "internalType": "address",
          "name": "validator",
          "type": "address"
        }
      ],
      "name": "ValidatorAdded",
      "type": "event"
    },
    {
      "anonymous": false,
      "inputs": [
        {
          "indexed": true,
          "internalType": "address",
          "name": "validator",
          "type": "address"
        }
      ],
      "name": "ValidatorRemoved",
      "type": "event"
    },
    {
      "inputs": [
        {
          "internalType": "address",
          "name": "validator",
          "type": "address"
        }
      ],
      "name": "addValidator",
      "outputs": [],
      "stateMutability": "nonpayable",
      "type": "function"
    },
    {
      "inputs": [
        {
          "internalType": "address",
          "name": "owner",
          "type": "address"
        },
        {
          "internalType": "address",
          "name": "spender",
          "type": "address"
        }
      ],
      "name": "allowance",
      "outputs": [
        {
          "internalType": "uint256",
          "name": "",
          "type": "uint256"
        }
      ],
      "stateMutability": "view",
      "type": "function"
    },
    {
      "inputs": [
        {
          "internalType": "address",
          "name": "spender",
          "type": "address"
        },
        {
          "internalType": "uint256",
          "name": "value",
          "type": "uint256"
        }
      ],
      "name": "approve",
      "outputs": [
        {
          "internalType": "bool",
          "name": "",
          "type": "bool"
        }
      ],
      "stateMutability": "nonpayable",
      "type": "function"
    },
    {
      "inputs": [
        {
          "internalType": "address",
          "name": "account",
          "type": "address"
        }
      ],
      "name": "balanceOf",
      "outputs": [
        {
          "internalType": "uint256",
          "name": "",
          "type": "uint256"
        }
      ],
      "stateMutability": "view",
      "type": "function"
    },
    {
      "inputs": [
        {
          "internalType": "uint256",
          "name": "amount",
          "type": "uint256"
        },
        {
          "internalType": "string",
          "name": "destinationChain",
          "type": "string"
        },
        {
          "internalType": "string",
          "name": "destinationAddress",
          "type": "string"
        }
      ],
      "name": "burn",
      "outputs": [],
      "stateMutability": "nonpayable",
      "type": "function"
    },
    {
      "inputs": [],
      "name": "decimals",
      "outputs": [
        {
          "internalType": "uint8",
          "name": "",
          "type": "uint8"
        }
      ],
      "stateMutability": "view",
      "type": "function"
    },
    {
      "inputs": [],
      "name": "getInfo",
      "outputs": [
        {
          "internalType": "uint256",
          "name": "contractNonce",
          "type": "uint256"
        },
        {
          "internalType": "uint256",
          "name": "bridgedAmount",
          "type": "uint256"
        },
        {
          "internalType": "uint256",
          "name": "validatorCount",
          "type": "uint256"
        }
      ],
      "stateMutability": "view",
      "type": "function"
    },
    {
      "inputs": [],
      "name": "getValidators",
      "outputs": [
        {
          "internalType": "address[]",
          "name": "",
          "type": "address[]"
        }
      ],
      "stateMutability": "view",
      "type": "function"
    },
    {
      "inputs": [
        {
          "internalType": "uint256",
          "name": "_nonce",
          "type": "uint256"
        }
      ],
      "name": "isNonceProcessed",
      "outputs": [
        {
          "internalType": "bool",
          "name": "",
          "type": "bool"
        }
      ],
      "stateMutability": "view",
      "type": "function"
    },
    {
      "inputs": [],
      "name": "minBurnAmount",
      "outputs": [
        {
          "internalType": "uint256",
          "name": "",
          "type": "uint256"
        }
      ],
      "stateMutability": "view",
      "type": "function"
    },
    {
      "inputs": [
        {
          "components": [
            {
              "internalType": "string",
              "name": "sourceChain",
              "type": "string"
            },
            {
              "internalType": "string",
              "name": "sourceTxHash",
              "type": "string"
            },
            {
              "internalType": "uint256",
              "name": "amount",
              "type": "uint256"
            },
            {
              "internalType": "address",
              "name": "recipient",
              "type": "address"
            },
            {
              "internalType": "uint256",
              "name": "nonce",
              "type": "uint256"
            },
            {
              "internalType": "bytes[]",
              "name": "validatorSignatures",
              "type": "bytes[]"
            }
          ],
          "internalType": "struct CasperBridgeWrapper.MintProof",
          "name": "proof",
          "type": "tuple"
        }
      ],
      "name": "mint",
      "outputs": [],
      "stateMutability": "nonpayable",
      "type": "function"
    },
    {
      "inputs": [],
      "name": "name",
      "outputs": [
        {
          "internalType": "string",
          "name": "",
          "type": "string"
        }
      ],
      "stateMutability": "view",
      "type": "function"
    },
    {
      "inputs": [],
      "name": "nonce",
      "outputs": [
        {
          "internalType": "uint256",
          "name": "",
          "type": "uint256"
        }
      ],
      "stateMutability": "view",
      "type": "function"
    },
    {
      "inputs": [],
      "name": "owner",
      "outputs": [
        {
          "internalType": "address",
          "name": "",
          "type": "address"
        }
      ],
      "stateMutability": "view",
      "type": "function"
    },
    {
      "inputs": [],
      "name": "pause",
      "outputs": [],
      "stateMutability": "nonpayable",
      "type": "function"
    },
    {
      "inputs": [],
      "name": "paused",
      "outputs": [
        {
          "internalType": "bool",
          "name": "",
          "type": "bool"
        }
      ],
      "stateMutability": "view",
      "type": "function"
    },
    {
      "inputs": [
        {
          "internalType": "uint256",
          "name": "",
          "type": "uint256"
        }
      ],
      "name": "processedNonces",
      "outputs": [
        {
          "internalType": "bool",
          "name": "",
          "type": "bool"
        }
      ],
      "stateMutability": "view",
      "type": "function"
    },
    {
      "inputs": [
        {
          "internalType": "address",
          "name": "validator",
          "type": "address"
        }
      ],
      "name": "removeValidator",
      "outputs": [],
      "stateMutability": "nonpayable",
      "type": "function"
    },
    {
      "inputs": [],
      "name": "renounceOwnership",
      "outputs": [],
      "stateMutability": "nonpayable",
      "type": "function"
    },
    {
      "inputs": [],
      "name": "requiredSignatures",
      "outputs": [
        {
          "internalType": "uint256",
          "name": "",
          "type": "uint256"
        }
      ],
      "stateMutability": "view",
      "type": "function"
    },
    {
      "inputs": [
        {
          "internalType": "uint256",
          "name": "_minBurnAmount",
          "type": "uint256"
        }
      ],
      "name": "setMinBurnAmount",
      "outputs": [],
      "stateMutability": "nonpayable",
      "type": "function"
    },
    {
      "inputs": [
        {
          "internalType": "uint256",
          "name": "_requiredSignatures",
          "type": "uint256"
        }
      ],
      "name": "setRequiredSignatures",
      "outputs": [],
      "stateMutability": "nonpayable",
      "type": "function"
    },
    {
      "inputs": [],
      "name": "symbol",
      "outputs": [
        {
          "internalType": "string",
          "name": "",
          "type": "string"
        }
      ],
      "stateMutability": "view",
      "type": "function"
    },
    {
      "inputs": [],
      "name": "totalBridged",
      "outputs": [
        {
          "internalType": "uint256",
          "name": "",
          "type": "uint256"
        }
      ],
      "stateMutability": "view",
      "type": "function"
    },
    {
      "inputs": [],
      "name": "totalSupply",
      "outputs": [
        {
          "internalType": "uint256",
          "name": "",
          "type": "uint256"
        }
      ],
      "stateMutability": "view",
      "type": "function"
    },
    {
      "inputs": [
        {
          "internalType": "address",
          "name": "to",
          "type": "address"
        },
        {
          "internalType": "uint256",
          "name": "value",
          "type": "uint256"
        }
      ],
      "name": "transfer",
      "outputs": [
        {
          "internalType": "bool",
          "name": "",
          "type": "bool"
        }
      ],
      "stateMutability": "nonpayable",
      "type": "function"
    },
    {
      "inputs": [
        {
          "internalType": "address",
          "name": "from",
          "type": "address"
        },
        {
          "internalType": "address",
          "name": "to",
          "type": "address"
        },
        {
          "internalType": "uint256",
          "name": "value",
          "type": "uint256"
        }
      ],
      "name": "transferFrom",
      "outputs": [
        {
          "internalType": "bool",
          "name": "",
          "type": "bool"
        }
      ],
      "stateMutability": "nonpayable",
      "type": "function"
    },
    {
      "inputs": [
        {
          "internalType": "address",
          "name": "newOwner",
          "type": "address"
        }
      ],
      "name": "transferOwnership",
      "outputs": [],
      "stateMutability": "nonpayable",
      "type": "function"
    },
    {
      "inputs": [],
      "name": "unpause",
      "outputs": [],
      "stateMutability": "nonpayable",
      "type": "function"
    },
    {
      "inputs": [
        {
          "internalType": "uint256",
          "name": "",
          "type": "uint256"
        }
      ],
      "name": "validatorList",
      "outputs": [
        {
          "internalType": "address",
          "name": "",
          "type": "address"
        }
      ],
      "stateMutability": "view",
      "type": "function"
    },
    {
      "inputs": [
        {
          "internalType": "address",
          "name": "",
          "type": "address"
        }
      ],
      "name": "validators",
      "outputs": [
        {
          "internalType": "bool",
          "name": "",
          "type": "bool"
        }
      ],
      "stateMutability": "view",
      "type": "function"
    }
  ],
  "bytecode": "0x60806040523480156200001157600080fd5b5060405162001f8738038062001f87833981016040819052620000349162000211565b336040518060400160405280600e81526020016d2bb930b83832b21021b0b9b832b960911b815250604051806040016040528060058152602001643ba1a9a82960d91b81525081600390816200008b9190620002dd565b5060046200009a8282620002dd565b5050506001600160a01b038116620000cd57604051631e4fbdf760e01b8152600060048201526024015b60405180910390fd5b620000d881620001bf565b506001600655816200012d5760405162461bcd60e51b815260206004820152601d60248201527f496e76616c6964207369676e617475726520726571756972656d656e740000006044820152606401620000c4565b600a829055600d81905533600081815260086020526040808220805460ff19166001908117909155600e8054918201815583527fbb7b4a454dc3493923482f07822329ed19e8244eff582cc204f8554c3620c3fd0180546001600160a01b03191684179055517fe366c1c0452ed8eec96861e9e54141ebff23c9ec89fe27b996b45f5ec38849879190a25050620003a9565b600580546001600160a01b038381166001600160a01b0319831681179093556040519116919082907f8be0079c531659141344cd1fd0a4f28419497f9722a3daafe3b4186f6b6457e090600090a35050565b600080604083850312156200022557600080fd5b505080516020909101519092909150565b634e487b7160e01b600052604160045260246000fd5b600181811c908216806200026157607f821691505b6020821081036200028257634e487b7160e01b600052602260045260246000fd5b50919050565b601f821115620002d8576000816000526020600020601f850160051c81016020861015620002b35750805b601f850160051c820191505b81811015620002d457828155600101620002bf565b5050505b505050565b81516001600160401b03811115620002f957620002f962000236565b62000311816200030a84546200024c565b8462000288565b602080601f831160018114620003495760008415620003305750858301515b600019600386901b1c1916600185901b178555620002d4565b600085815260208120601f198616915b828110156200037a5788860151825594840194600190910190840162000359565b5085821015620003995787850151600019600388901b60f8161c191681555b5050505050600190811b01905550565b611bce80620003b96000396000f3fe608060405234801561001057600080fd5b50600436106101e55760003560e01c8063839975bb1161010f578063a9059cbb116100a2578063ba211db011610071578063ba211db014610402578063dd62ed3e14610415578063f2fde38b1461044e578063fa52c7d81461046157600080fd5b8063a9059cbb146103be578063affed0e0146103d1578063b048e056146103da578063b7ab4db5146103ed57600080fd5b80638da5cb5b116100de5780638da5cb5b1461035b57806391dae5191461038057806395d89b41146103a35780639ab8e6d2146103ab57600080fd5b8063839975bb1461032e578063840c8b6b146103375780638456cb591461034a5780638d0680431461035257600080fd5b80634d238c8e116101875780636b3f4b3f116101565780636b3f4b3f146102c757806370a08231146102ea578063715018a6146103135780637d2b9cc01461031b57600080fd5b80634d238c8e1461027c5780635a9b0b891461028f5780635c975abb146102b357806367a1791a146102be57600080fd5b806323b872dd116101c357806323b872dd1461023d578063313ce567146102505780633f4ba83a1461025f57806340a141ff1461026957600080fd5b806306fdde03146101ea578063095ea7b31461020857806318160ddd1461022b575b600080fd5b6101f2610484565b6040516101ff91906116f2565b60405180910390f35b61021b61021636600461175d565b610516565b60405190151581526020016101ff565b6002545b6040519081526020016101ff565b61021b61024b366004611787565b610530565b604051601281526020016101ff565b610267610554565b005b6102676102773660046117c3565b610566565b61026761028a3660046117c3565b610721565b600b54600c54600e54604080519384526020840192909252908201526060016101ff565b60075460ff1661021b565b61022f600c5481565b61021b6102d53660046117e5565b60009081526009602052604090205460ff1690565b61022f6102f83660046117c3565b6001600160a01b031660009081526020819052604090205490565b61026761086a565b6102676103293660046117e5565b61087c565b61022f600d5481565b6102676103453660046117fe565b610977565b610267610b82565b61022f600a5481565b6005546001600160a01b03165b6040516001600160a01b0390911681526020016101ff565b61021b61038e3660046117e5565b60096020526000908152604090205460ff1681565b6101f2610b92565b6102676103b93660046117e5565b610ba1565b61021b6103cc36600461175d565b610bae565b61022f600b5481565b6103686103e83660046117e5565b610bbc565b6103f5610be6565b6040516101ff9190611839565b6102676104103660046118cf565b610c47565b61022f610423366004611949565b6001600160a01b03918216600090815260016020908152604080832093909416825291909152205490565b61026761045c3660046117c3565b610d77565b61021b61046f3660046117c3565b60086020526000908152604090205460ff1681565b6060600380546104939061197c565b80601f01602080910402602001604051908101604052809291908181526020018280546104bf9061197c565b801561050c5780601f106104e15761010080835404028352916020019161050c565b820191906000526020600020905b8154815290600101906020018083116104ef57829003601f168201915b5050505050905090565b600033610524818585610db2565b60019150505b92915050565b60003361053e858285610dc4565b610549858585610e43565b506001949350505050565b61055c610ea2565b610564610ecf565b565b61056e610ea2565b6001600160a01b03811660009081526008602052604090205460ff166105cd5760405162461bcd60e51b815260206004820152600f60248201526e2737ba1030903b30b634b230ba37b960891b60448201526064015b60405180910390fd5b6001600160a01b0381166000908152600860205260408120805460ff191690555b600e548110156106e957816001600160a01b0316600e8281548110610615576106156119b6565b6000918252602090912001546001600160a01b0316036106e157600e805461063f906001906119e2565b8154811061064f5761064f6119b6565b600091825260209091200154600e80546001600160a01b03909216918390811061067b5761067b6119b6565b9060005260206000200160006101000a8154816001600160a01b0302191690836001600160a01b03160217905550600e8054806106ba576106ba6119f5565b600082815260209020810160001990810180546001600160a01b03191690550190556106e9565b6001016105ee565b506040516001600160a01b038216907fe1434e25d6611e0db941968fdc97811c982ac1602e951637d206f5fdda9dd8f190600090a250565b610729610ea2565b6001600160a01b03811661077f5760405162461bcd60e51b815260206004820152601960248201527f496e76616c69642076616c696461746f7220616464726573730000000000000060448201526064016105c4565b6001600160a01b03811660009081526008602052604090205460ff16156107de5760405162461bcd60e51b815260206004820152601360248201527220b63932b0b23c9030903b30b634b230ba37b960691b60448201526064016105c4565b6001600160a01b038116600081815260086020526040808220805460ff19166001908117909155600e8054918201815583527fbb7b4a454dc3493923482f07822329ed19e8244eff582cc204f8554c3620c3fd0180546001600160a01b03191684179055517fe366c1c0452ed8eec96861e9e54141ebff23c9ec89fe27b996b45f5ec38849879190a250565b610872610ea2565b6105646000610f21565b610884610ea2565b600081116108de5760405162461bcd60e51b815260206004820152602160248201527f4d7573742072657175697265206174206c656173742031207369676e617475726044820152606560f81b60648201526084016105c4565b600e5481111561093c5760405162461bcd60e51b815260206004820152602360248201527f526571756972656d656e7420657863656564732076616c696461746f7220636f6044820152621d5b9d60ea1b60648201526084016105c4565b600a8190556040518181527f2d465bb3608d42a9f6601f7adf1e33540314b62582a6cd3e329dd32ff8b5d1959060200160405180910390a150565b61097f610f73565b610987610f9d565b608081013560009081526009602052604090205460ff16156109eb5760405162461bcd60e51b815260206004820152601760248201527f50726f6f6620616c72656164792070726f63657373656400000000000000000060448201526064016105c4565b600a546109fb60a0830183611a0b565b90501015610a555760405162461bcd60e51b815260206004820152602160248201527f496e73756666696369656e742076616c696461746f72207369676e61747572656044820152607360f81b60648201526084016105c4565b610a5e81610fc1565b610aaa5760405162461bcd60e51b815260206004820152601c60248201527f496e76616c69642076616c696461746f72207369676e6174757265730000000060448201526064016105c4565b6080810135600090815260096020526040808220805460ff19166001179055600c805491840135929091610adf908490611a55565b90915550610b029050610af860808301606084016117c3565b82604001356111be565b60808101803590610b1690606084016117c3565b6001600160a01b03167f692ea14c5963100e0d6db88f37cc494c4769b2e3f86310f1657d3fe34c88e6436040840135610b4f8580611a68565b610b5c6020880188611a68565b604051610b6d959493929190611ad8565b60405180910390a3610b7f6001600655565b50565b610b8a610ea2565b6105646111f8565b6060600480546104939061197c565b610ba9610ea2565b600d55565b600033610524818585610e43565b600e8181548110610bcc57600080fd5b6000918252602090912001546001600160a01b0316905081565b6060600e80548060200260200160405190810160405280929190818152602001828054801561050c57602002820191906000526020600020905b81546001600160a01b03168152600190910190602001808311610c20575050505050905090565b610c4f610f73565b610c57610f9d565b600d54851015610ca05760405162461bcd60e51b8152602060048201526014602482015273416d6f756e742062656c6f77206d696e696d756d60601b60448201526064016105c4565b80610ce35760405162461bcd60e51b815260206004820152601360248201527224b73b30b634b2103232b9ba34b730ba34b7b760691b60448201526064016105c4565b610ced3386611235565b84600c6000828254610cff91906119e2565b9091555050600b80549081906000610d1683611b11565b919050555080336001600160a01b03167f844ffe77f7eac03166790e7568a0e7ce3709ec4c7e63e73d6d0ded634e0ee4178888888888604051610d5d959493929190611ad8565b60405180910390a350610d706001600655565b5050505050565b610d7f610ea2565b6001600160a01b038116610da957604051631e4fbdf760e01b8152600060048201526024016105c4565b610b7f81610f21565b610dbf838383600161126b565b505050565b6001600160a01b03838116600090815260016020908152604080832093861683529290522054600019811015610e3d5781811015610e2e57604051637dc7a0d960e11b81526001600160a01b038416600482015260248101829052604481018390526064016105c4565b610e3d8484848403600061126b565b50505050565b6001600160a01b038316610e6d57604051634b637e8f60e11b8152600060048201526024016105c4565b6001600160a01b038216610e975760405163ec442f0560e01b8152600060048201526024016105c4565b610dbf838383611340565b6005546001600160a01b031633146105645760405163118cdaa760e01b81523360048201526024016105c4565b610ed761146a565b6007805460ff191690557f5db9ee0a495bf2e6ff9c91a7834c1ba4fdd244a5e8aa4e537bd38aeae4b073aa335b6040516001600160a01b03909116815260200160405180910390a1565b600580546001600160a01b038381166001600160a01b0319831681179093556040519116919082907f8be0079c531659141344cd1fd0a4f28419497f9722a3daafe3b4186f6b6457e090600090a35050565b600260065403610f9657604051633ee5aeb560e01b815260040160405180910390fd5b6002600655565b60075460ff16156105645760405163d93c066560e01b815260040160405180910390fd5b600080610fcd8361148d565b7f19457468657265756d205369676e6564204d6573736167653a0a3332000000006000908152601c829052603c81209192508061100d60a0870187611a0b565b905067ffffffffffffffff81111561102757611027611b2a565b604051908082528060200260200182016040528015611050578160200160208202803683370190505b5090506000805b61106460a0890189611a0b565b90508110156111ac5760006110dc8661108060a08c018c611a0b565b85818110611090576110906119b6565b90506020028101906110a29190611a68565b8080601f0160208091040260200160405190810160405280939291908181526020018383808284376000920191909152506114f392505050565b6001600160a01b03811660009081526008602052604090205490915060ff1661110557506111a4565b6000805b8481101561115457826001600160a01b031686828151811061112d5761112d6119b6565b60200260200101516001600160a01b03160361114c5760019150611154565b600101611109565b50806111a1578185858151811061116d5761116d6119b6565b6001600160a01b03909216602092830291909101909101528361118f81611b11565b945050858061119d90611b11565b9650505b50505b600101611057565b5050600a549091101595945050505050565b6001600160a01b0382166111e85760405163ec442f0560e01b8152600060048201526024016105c4565b6111f460008383611340565b5050565b611200610f9d565b6007805460ff191660011790557f62e78cea01bee320cd4e420270b5ea74000d11b0c9f74754ebdbfc544b05a258610f043390565b6001600160a01b03821661125f57604051634b637e8f60e11b8152600060048201526024016105c4565b6111f482600083611340565b6001600160a01b0384166112955760405163e602df0560e01b8152600060048201526024016105c4565b6001600160a01b0383166112bf57604051634a1406b160e11b8152600060048201526024016105c4565b6001600160a01b0380851660009081526001602090815260408083209387168352929052208290558015610e3d57826001600160a01b0316846001600160a01b03167f8c5be1e5ebec7d5bd14f71427d1e84f3dd0314c0f7b2291e5b200ac8c7c3b9258460405161133291815260200190565b60405180910390a350505050565b6001600160a01b03831661136b5780600260008282546113609190611a55565b909155506113dd9050565b6001600160a01b038316600090815260208190526040902054818110156113be5760405163391434e360e21b81526001600160a01b038516600482015260248101829052604481018390526064016105c4565b6001600160a01b03841660009081526020819052604090209082900390555b6001600160a01b0382166113f957600280548290039055611418565b6001600160a01b03821660009081526020819052604090208054820190555b816001600160a01b0316836001600160a01b03167fddf252ad1be2c89b69c2b068fc378daa952ba7f163c4a11628f55a4df523b3ef8360405161145d91815260200190565b60405180910390a3505050565b60075460ff1661056457604051638dfc202b60e01b815260040160405180910390fd5b60006114998280611a68565b6114a66020850185611a68565b60408601356114bb60808801606089016117c3565b87608001356040516020016114d69796959493929190611b40565b604051602081830303815290604052805190602001209050919050565b600080600080611503868661151d565b925092509250611513828261156a565b5090949350505050565b600080600083516041036115575760208401516040850151606086015160001a61154988828585611623565b955095509550505050611563565b50508151600091506002905b9250925092565b600082600381111561157e5761157e611b82565b03611587575050565b600182600381111561159b5761159b611b82565b036115b95760405163f645eedf60e01b815260040160405180910390fd5b60028260038111156115cd576115cd611b82565b036115ee5760405163fce698f760e01b8152600481018290526024016105c4565b600382600381111561160257611602611b82565b036111f4576040516335e2f38360e21b8152600481018290526024016105c4565b600080807f7fffffffffffffffffffffffffffffff5d576e7357a4501ddfe92f46681b20a084111561165e57506000915060039050826116e8565b604080516000808252602082018084528a905260ff891692820192909252606081018790526080810186905260019060a0016020604051602081039080840390855afa1580156116b2573d6000803e3d6000fd5b5050604051601f1901519150506001600160a01b0381166116de575060009250600191508290506116e8565b9250600091508190505b9450945094915050565b60006020808352835180602085015260005b8181101561172057858101830151858201604001528201611704565b506000604082860101526040601f19601f8301168501019250505092915050565b80356001600160a01b038116811461175857600080fd5b919050565b6000806040838503121561177057600080fd5b61177983611741565b946020939093013593505050565b60008060006060848603121561179c57600080fd5b6117a584611741565b92506117b360208501611741565b9150604084013590509250925092565b6000602082840312156117d557600080fd5b6117de82611741565b9392505050565b6000602082840312156117f757600080fd5b5035919050565b60006020828403121561181057600080fd5b813567ffffffffffffffff81111561182757600080fd5b820160c081850312156117de57600080fd5b6020808252825182820181905260009190848201906040850190845b8181101561187a5783516001600160a01b031683529284019291840191600101611855565b50909695505050505050565b60008083601f84011261189857600080fd5b50813567ffffffffffffffff8111156118b057600080fd5b6020830191508360208285010111156118c857600080fd5b9250929050565b6000806000806000606086880312156118e757600080fd5b85359450602086013567ffffffffffffffff8082111561190657600080fd5b61191289838a01611886565b9096509450604088013591508082111561192b57600080fd5b5061193888828901611886565b969995985093965092949392505050565b6000806040838503121561195c57600080fd5b61196583611741565b915061197360208401611741565b90509250929050565b600181811c9082168061199057607f821691505b6020821081036119b057634e487b7160e01b600052602260045260246000fd5b50919050565b634e487b7160e01b600052603260045260246000fd5b634e487b7160e01b600052601160045260246000fd5b8181038181111561052a5761052a6119cc565b634e487b7160e01b600052603160045260246000fd5b6000808335601e19843603018112611a2257600080fd5b83018035915067ffffffffffffffff821115611a3d57600080fd5b6020019150600581901b36038213156118c857600080fd5b8082018082111561052a5761052a6119cc565b6000808335601e19843603018112611a7f57600080fd5b83018035915067ffffffffffffffff821115611a9a57600080fd5b6020019150368190038213156118c857600080fd5b81835281816020850137506000828201602090810191909152601f909101601f19169091010190565b858152606060208201526000611af2606083018688611aaf565b8281036040840152611b05818587611aaf565b98975050505050505050565b600060018201611b2357611b236119cc565b5060010190565b634e487b7160e01b600052604160045260246000fd5b86888237600087820160008152868882379095019384525060609190911b6bffffffffffffffffffffffff191660208301526034820152605401949350505050565b634e487b7160e01b600052602160045260246000fdfea2646970667358221220f12f3b1febc459f6514fa538aee9e63b6f919595d0586e2657133d6677db663364736f6c63430008180033",
  "linkReferences": {},
  "deployedLinkReferences": {}
}